{
  "contractName": "MatsFirstContract",
  "abi": [
    {
      "inputs": [
        {
          "internalType": "uint256",
          "name": "_x",
          "type": "uint256"
        }
      ],
      "stateMutability": "nonpayable",
      "type": "constructor"
    },
    {
      "inputs": [],
      "name": "x",
      "outputs": [
        {
          "internalType": "uint256",
          "name": "",
          "type": "uint256"
        }
      ],
      "stateMutability": "view",
      "type": "function"
    },
    {
      "inputs": [
        {
          "internalType": "uint256",
          "name": "_x",
          "type": "uint256"
        }
      ],
      "name": "setData",
      "outputs": [],
      "stateMutability": "nonpayable",
      "type": "function"
    },
    {
      "inputs": [],
      "name": "getData",
      "outputs": [
        {
          "internalType": "uint256",
          "name": "",
          "type": "uint256"
        }
      ],
      "stateMutability": "view",
      "type": "function"
    }
  ],
  "bytecode": "0x6080604052600660005534801561001557600080fd5b5060405161023a38038061023a83398181016040528101906100379190610059565b80600081905550506100ac565b60008151905061005381610095565b92915050565b60006020828403121561006f5761006e610090565b5b600061007d84828501610044565b91505092915050565b6000819050919050565b600080fd5b61009e81610086565b81146100a957600080fd5b50565b61017f806100bb6000396000f3fe608060405234801561001057600080fd5b50600436106100415760003560e01c80630c55699c146100465780633bc5de30146100645780635b4b73a914610082575b600080fd5b61004e61009e565b60405161005b9190610108565b60405180910390f35b61006c6100a4565b6040516100799190610108565b60405180910390f35b61009c600480360381019061009791906100cc565b6100ad565b005b60005481565b60008054905090565b8060008190555050565b6000813590506100c681610132565b92915050565b6000602082840312156100e2576100e161012d565b5b60006100f0848285016100b7565b91505092915050565b61010281610123565b82525050565b600060208201905061011d60008301846100f9565b92915050565b6000819050919050565b600080fd5b61013b81610123565b811461014657600080fd5b5056fea264697066735822122084e264e1b46954d483087a4a5fe9b5170be9f5de827822af6abc39ae3872311064736f6c63430008060033",
  "immutableReferences": {},
  "source": "pragma solidity ^0.8.6;\n\ncontract MatsFirstContract {\n\n    // declaring a variable\n    uint public x = 6;\n    \n    // writing a constructor\n    constructor(uint  _x) {\n        x = _x;\n    }\n    \n    // setting the variable \n    function setData(uint  _x) public {\n        x = _x;\n    }\n    \n    // getting the variable\n    function getData() public view returns (uint ) {\n        return x;\n    }\n}",
  "sourcePath": "/Users/mat/gitroot/fintex.dev/src/node/solidityTests/greetings/contracts/Greetings.sol",
  "compiler": {
    "name": "solc",
    "version": "0.8.6+commit.11564f7e.Emscripten.clang"
  },
  "schemaVersion": "3.4.1",
  "updatedAt": "2021-08-07T14:08:41.677Z",
  "devdoc": {
    "kind": "dev",
    "methods": {},
    "version": 1
  },
  "userdoc": {
    "kind": "user",
    "methods": {},
    "version": 1
  }
}